:100000000C945D000C9465030C943E030C948500E5
:100010000C9485000C9485000C9485000C9485004C
:100020000C9485000C9485000C9485000C9485003C
:100030000C9485000C9485000C9485000C9485002C
:100040000C94F4020C9485000C94C2020C949C0253
:100050000C9485000C9485000C9485000C9485000C
:100060000C9485000C94850000000008000201003B
:100070000003040700000000000000000000000072
:10008000250028002B0000000000240027002A0083
:10009000040404040404040402020202020203032E
:1000A0000303030301020408102040800102040836
:1000B0001020010204081020C20411241FBECFEF3B
:1000C000D8E0DEBFCDBF11E0A0E0B1E0ECE3FAE0A4
:1000D00002C005900D92A632B107D9F721E0A6E241
:1000E000B1E001C01D92AB3DB207E1F710E0CDE5F4
:1000F000D0E004C02197FE010E941105CC35D10744
:10010000C9F70E948C030C941C050C94000090E02D
:10011000FC01EC55FF4F2491FC01E057FF4F849107
:10012000882399F090E0880F991FFC01EA57FF4F50
:10013000A591B491FC01E458FF4F859194918FB73C
:10014000F894EC91E22BEC938FBF0895CF92DF925D
:10015000EF92FF920F931F93CF93DF936C017A017D
:100160008B01C0E0D0E0CE15DF0581F0D8016D91A4
:100170008D01D601ED91FC910190F081E02DC60139
:100180000995892B11F02196EECF7E01C701DF91F1
:10019000CF911F910F91FF90EF90DF90CF90089536
:1001A000089580E090E00895FC01538D448D252F43
:1001B00030E0842F90E0821B930B541710F0CF9601
:1001C000089501970895FC01918D828D981761F033
:1001D000828DDF01A80FB11D5D968C91928D9F5F7E
:1001E0009F73928F90E008958FEF9FEF0895FC0129
:1001F000918D828D981731F0828DE80FF11D858DDC
:1002000090E008958FEF9FEF0895FC01918D228D6E
:10021000892F90E0805C9F4F821B91098F739927F3
:1002200008958EE391E00E94050121E0892B09F4F5
:1002300020E0822F0895FC01848DDF01A80FB11DFD
:10024000A35ABF4F2C91848D90E001968F7399270C
:10025000848FA689B7892C93A089B1898C918370EA
:1002600080648C93938D848D981306C00288F389E3
:10027000E02D80818F7D80830895EF92FF920F9310
:100280001F93CF93DF93EC0181E0888F9B8D8C8D42
:10029000981305C0E889F989808185FD26C0F62E6E
:1002A0000B8D10E00F5F1F4F0F731127E02E8C8D09
:1002B000E8120CC00FB607FCFACFE889F9898081F3
:1002C00085FFF5CFCE010E941B01F1CF8B8DFE0182
:1002D000E80FF11DE35AFF4FF0829FB7F8940B8FA0
:1002E000EA89FB89808180620AC09FB7F894EE8911
:1002F000FF896083E889F9898081837080648083C5
:100300009FBF81E090E0DF91CF911F910F91FF900F
:10031000EF900895CF93DF93EC01888D8823C9F087
:10032000EA89FB89808185FD05C0A889B9898C91FE
:1003300086FD0FC00FB607FCF5CF808185FFF2CF99
:10034000A889B9898C9185FFEDCFCE010E941B0150
:10035000E7CFDF91CF91089580E090E0892B29F0DD
:100360000E94110181110C940000089590E0FC019D
:10037000E859FF4F2491FC01EC55FF4F3491FC01EB
:10038000E057FF4FE491EE2309F43CC0222339F1FA
:10039000233091F038F42130A9F0223001F584B5F2
:1003A0008F7D12C0273091F02830A1F02430B9F4AD
:1003B000809180008F7D03C0809180008F77809333
:1003C00080000DC084B58F7784BD09C08091B000D6
:1003D0008F7703C08091B0008F7D8093B000F0E0F4
:1003E000EE0FFF1FE458FF4FA591B4919FB7F8940B
:1003F000611104C08C913095382302C0EC913E2BE2
:100400003C939FBF08953FB7F89480912D01909140
:100410002E01A0912F01B091300126B5A89B05C0F7
:100420002F3F19F00196A11DB11D3FBFBA2FA92F73
:10043000982F8827820F911DA11DB11DBC01CD01F0
:1004400042E0660F771F881F991F4A95D1F70895DC
:100450002FB7F8946091290170912A0180912B01A6
:1004600090912C012FBF08950895809326019091BB
:100470000001992311F0682F01C060E08DE00C9419
:10048000B6010E9428022091370130913801621B89
:10049000730B80913501909136016817790784F0CC
:1004A0000E942802709338016093370190910001F7
:1004B00081E0892780930001809126010C94350208
:1004C0000895009769F0FC0101900020E9F7319749
:1004D000AF01481B590BBC018EE391E00C94A600C0
:1004E00080E090E008950E9428022091330130912D
:1004F0003401621B730B80913101909132016817B6
:100500007907BCF00E942802709334016093330194
:1005100087E191E00E94610283E291E00E94610222
:100520006091270181E06827609327018CE00C949B
:10053000B60108950E9417051F920F920FB60F92F1
:1005400011242F933F934F935F936F937F938F93D8
:100550009F93AF93BF93EF93FF938EE391E00E943D
:100560001B01FF91EF91BF91AF919F918F917F916F
:100570006F915F914F913F912F910F900FBE0F9010
:100580001F9018951F920F920FB60F9211242F9360
:100590008F939F93EF93FF93E0914E01F0914F0162
:1005A0008081E0915401F091550182FD12C090814B
:1005B000809157018F5F8F7320915801821751F0FE
:1005C000E0915701F0E0E25CFE4F958F8093570178
:1005D00001C08081FF91EF919F918F912F910F909A
:1005E0000FBE0F901F9018951F920F920FB60F928B
:1005F00011242F933F938F939F93AF93BF93809139
:10060000290190912A01A0912B01B0912C013091E8
:10061000280123E0230F2D3720F40196A11DB11DE1
:1006200005C026E8230F0296A11DB11D20932801C5
:100630008093290190932A01A0932B01B0932C0160
:1006400080912D0190912E01A0912F01B091300148
:100650000196A11DB11D80932D0190932E01A093B1
:100660002F01B0933001BF91AF919F918F913F9136
:100670002F910F900FBE0F901F9018951F920F9201
:100680000FB60F9211242F933F934F935F936F9365
:100690007F938F939F93AF93BF93EF93FF93E091DB
:1006A0000301F09104010995FF91EF91BF91AF9182
:1006B0009F918F917F916F915F914F913F912F917A
:1006C0000F900FBE0F901F9018951F920F920FB6AC
:1006D0000F9211242F933F934F935F936F937F93C8
:1006E0008F939F93AF93BF93EF93FF93E09101019B
:1006F000F09102010995FF91EF91BF91AF919F9108
:100700008F917F916F915F914F913F912F910F90BA
:100710000FBE0F901F901895CF93DF93CDB7DEB724
:10072000A1970FB6F894DEBF0FBECDBF789484B505
:10073000826084BD84B5816084BD85B5826085BDDD
:1007400085B5816085BD80916E00816080936E006B
:10075000109281008091810082608093810080915D
:10076000810081608093810080918000816080930E
:1007700080008091B10084608093B1008091B000CE
:1007800081608093B00080917A00846080937A00C9
:1007900080917A00826080937A0080917A008160F3
:1007A00080937A0080917A00806880937A0010921A
:1007B000C100E0914E01F0914F0182E08083E09111
:1007C0004A01F0914B011082E0914C01F0914D01F2
:1007D0008FEC808310925601E0915201F091530109
:1007E00086E08083E0915001F09151018081806129
:1007F0008083E0915001F091510180818860808375
:10080000E0915001F0915101808180688083E091F6
:100810005001F091510180818F7D80838CE00E9496
:10082000870083E792E09093040180930301809115
:1008300069008C6080936900E99A84EF91E090935D
:100840003201809331011092340110923301909360
:1008500036018093350110923801109237018DE0F6
:100860000E94870081E492E090930201809301014D
:1008700080916900836080936900E89A8AE0882EFD
:10088000912CA12CB12C3324339440903C015090F6
:100890003D01052C000C660877080E9403026B01DD
:1008A0007C014114510461047104F1F00E940302BF
:1008B000DC01CB018C199D09AE09BF09883E93402C
:1008C000A105B10570F321E0421A510861087108D1
:1008D00088EEC80E83E0D81EE11CF11C41145104BF
:1008E0006104710419F7DDCF0E9428022B013C013D
:1008F00070933B0160933A010E94280264197509C4
:1009000022E330E0261B370B37FF02C020E030E047
:1009100030933D0120933C01032E000C440B550BFA
:1009200019A28E010F5D1F4FCA01B901A5019401E3
:100930000E94EF04605DF80162938F01211531057B
:100940004105510589F7CF010E94610283E291E0E0
:100950000E94610220913C0130913D01809139015A
:10096000232B31F481110BC03092390181E005C095
:10097000882329F01092390180E00E9435020E94FC
:10098000AC0183CFEEE3F1E01382128288EE93E0B4
:10099000A0E0B0E084839583A683B78389E091E0EB
:1009A0009183808385EC90E09587848784EC90E048
:1009B0009787868780EC90E0918B808B81EC90E02C
:1009C000938B828B82EC90E0958B848B86EC90E00D
:1009D000978B868B118E128E138E148E0895A1E242
:1009E0001A2EAA1BBB1BFD010DC0AA1FBB1FEE1FA9
:1009F000FF1FA217B307E407F50720F0A21BB30BF4
:100A0000E40BF50B661F771F881F991F1A9469F76F
:100A100060957095809590959B01AC01BD01CF01CB
:100A20000895EE0FFF1F0590F491E02D099481E0E9
:0C0A300090E0F8940C941C05F894FFCFA3
:100A3C000134023402000000003D01A600D4008AFB
:100A4C00010501E300F7005465737420627574743A
:060A5C006F6E000D0A00A0
:00000001FF
