:100000000C945D000C9488030C9461030C9485009F
:100010000C9485000C9485000C9485000C9485004C
:100020000C9485000C9485000C9485000C9485003C
:100030000C9485000C9485000C9485000C9485002C
:100040000C9417030C9485000C94E5020C94BF02E9
:100050000C9485000C9485000C9485000C9485000C
:100060000C9485000C94850000000008000201003B
:100070000003040700000000000000000000000072
:10008000250028002B0000000000240027002A0083
:10009000040404040404040402020202020203032E
:1000A0000303030301020408102040800102040836
:1000B0001020010204081020AF0311241FBECFEF4F
:1000C000D8E0DEBFCDBF11E0A0E0B1E0EAE7FAE0A2
:1000D00002C005900D92AE32B107D9F721E0AEE231
:1000E000B1E001C01D92A53EB207E1F710E0CDE5F9
:1000F000D0E004C02197FE010E943005CC35D10725
:10010000C9F70E94E9030C943B050C94000090E0B1
:10011000FC01EC55FF4F2491FC01E057FF4F849107
:10012000882399F090E0880F991FFC01EA57FF4F50
:10013000A591B491FC01E458FF4F859194918FB73C
:10014000F894EC91E22BEC938FBF0895CF92DF925D
:10015000EF92FF920F931F93CF93DF936C017A017D
:100160008B01C0E0D0E0CE15DF0581F0D8016D91A4
:100170008D01D601ED91FC910190F081E02DC60139
:100180000995892B11F02196EECF7E01C701DF91F1
:10019000CF911F910F91FF90EF90DF90CF90089536
:1001A000089580E090E00895FC01538D448D252F43
:1001B00030E0842F90E0821B930B541710F0CF9601
:1001C000089501970895FC01918D828D981761F033
:1001D000828DDF01A80FB11D5D968C91928D9F5F7E
:1001E0009F73928F90E008958FEF9FEF0895FC0129
:1001F000918D828D981731F0828DE80FF11D858DDC
:1002000090E008958FEF9FEF0895FC01918D228D6E
:10021000892F90E0805C9F4F821B91098F739927F3
:1002200008958CE391E00E94050121E0892B09F4F7
:1002300020E0822F0895FC01848DDF01A80FB11DFD
:10024000A35ABF4F2C91848D90E001968F7399270C
:10025000848FA689B7892C93A089B1898C918370EA
:1002600080648C93938D848D981306C00288F389E3
:10027000E02D80818F7D80830895EF92FF920F9310
:100280001F93CF93DF93EC0181E0888F9B8D8C8D42
:10029000981305C0E889F989808185FD26C0F62E6E
:1002A0000B8D10E00F5F1F4F0F731127E02E8C8D09
:1002B000E8120CC00FB607FCFACFE889F9898081F3
:1002C00085FFF5CFCE010E941B01F1CF8B8DFE0182
:1002D000E80FF11DE35AFF4FF0829FB7F8940B8FA0
:1002E000EA89FB89808180620AC09FB7F894EE8911
:1002F000FF896083E889F9898081837080648083C5
:100300009FBF81E090E0DF91CF911F910F91FF900F
:10031000EF900895CF93DF93EC01888D8823C9F087
:10032000EA89FB89808185FD05C0A889B9898C91FE
:1003300086FD0FC00FB607FCF5CF808185FFF2CF99
:10034000A889B9898C9185FFEDCFCE010E941B0150
:10035000E7CFDF91CF91089580E090E0892B29F0DD
:100360000E94110181110C940000089590E0FC019D
:10037000E859FF4F2491FC01EC55FF4F3491FC01EB
:10038000E057FF4FE491EE2309F43CC0222339F1FA
:10039000233091F038F42130A9F0223001F584B5F2
:1003A0008F7D12C0273091F02830A1F02430B9F4AD
:1003B000809180008F7D03C0809180008F77809333
:1003C00080000DC084B58F7784BD09C08091B000D6
:1003D0008F7703C08091B0008F7D8093B000F0E0F4
:1003E000EE0FFF1FE458FF4FA591B4919FB7F8940B
:1003F000611104C08C913095382302C0EC913E2BE2
:100400003C939FBF0895789484B5826084BD84B581
:10041000816084BD85B5826085BD85B5816085BDFF
:10042000EEE6F0E0808181608083E1E8F0E0108218
:10043000808182608083808181608083E0E8F0E059
:10044000808181608083E1EBF0E080818460808343
:10045000E0EBF0E0808181608083EAE7F0E080817A
:1004600084608083808182608083808181608083DA
:100470008081806880831092C100089561E08DE0E2
:100480000E94B6010C9403023FB7F89480913001AA
:1004900090913101A0913201B091330126B5A89B12
:1004A00005C02F3F19F00196A11DB11D3FBFBA2F06
:1004B000A92F982F8827820F911DA11DB11DBC0166
:1004C000CD0142E0660F771F881F991F4A95D1F72B
:1004D00008950895009769F0FC0101900020E9F764
:1004E0003197AF01481B590BBC018CE391E00C9490
:1004F000A60080E090E008952FB7F894809138012D
:1005000090913901A0913A01B0913B012FBF209108
:10051000360130913701821B930B209134013091C9
:1005200035018217930704F12FB7F89480913801B1
:1005300090913901A0913A01B0913B012FBF909366
:1005400037018093360186E191E00E946A0282E2DF
:1005500091E00E946A0260912E0181E06827609319
:100560002E018CE00C94B601089585E291E00E9482
:100570006A0282E291E00C946A020E9436051F92A0
:100580000F920FB60F9211242F933F934F935F93C7
:100590006F937F938F939F93AF93BF93EF93FF934B
:1005A0008CE391E00E941B01FF91EF91BF91AF910D
:1005B0009F918F917F916F915F914F913F912F917B
:1005C0000F900FBE0F901F9018951F920F920FB6AD
:1005D0000F9211242F938F939F93EF93FF93E091AA
:1005E0004C01F0914D018081E0915201F091530155
:1005F00082FD12C09081809155018F5F8F73209191
:100600005601821751F0E0915501F0E0E45CFE4F95
:10061000958F8093550101C08081FF91EF919F914B
:100620008F912F910F900FBE0F901F9018951F92D2
:100630000F920FB60F9211242F933F938F939F9396
:10064000AF93BF938091380190913901A0913A0105
:10065000B0913B0130912F0123E0230F2D3720F47F
:100660000196A11DB11D05C026E8230F0296A11D0C
:10067000B11D20932F018093380190933901A093ED
:100680003A01B0933B018091300190913101A091EA
:100690003201B09133010196A11DB11D809330014B
:1006A00090933101A0933201B0933301BF91AF9188
:1006B0009F918F913F912F910F900FBE0F901F90A0
:1006C00018951F920F920FB60F9211242F933F93FC
:1006D0004F935F936F937F938F939F93AF93BF934A
:1006E000EF93FF93E0910201F09103010995FF91CF
:1006F000EF91BF91AF919F918F917F916F915F919A
:100700004F913F912F910F900FBE0F901F90189512
:100710001F920F920FB60F9211242F933F934F9376
:100720005F936F937F938F939F93AF93BF93EF9359
:10073000FF93E0910001F09101010995FF91EF9184
:10074000BF91AF919F918F917F916F915F914F91E9
:100750003F912F910F900FBE0F901F901895ECE3D3
:10076000F1E01382128288EE93E0A0E0B0E084838F
:100770009583A683B78388E091E09183808385EC9D
:1007800090E09587848784EC90E09787868780EC5B
:1007900090E0918B808B81EC90E0938B828B82EC4C
:1007A00090E0958B848B86EC90E0978B868B118EF6
:1007B000128E138E148EE9EDF1E082E390E09783C0
:1007C000868310868DE090E09287818781E0838721
:1007D0000895CF93DF93CDB7DEB7A1970FB6F89406
:1007E000DEBF0FBECDBF0E940302E0914C01F0912D
:1007F0004D0182E08083E0914801F091490110822F
:10080000E0914A01F0914B018FEC808310925401EA
:10081000E0915001F091510186E08083E0914E011A
:10082000F0914F01808180618083E0914E01F091D1
:100830004F01808188608083E0914E01F0914F01EB
:10084000808180688083E0914E01F0914F0180812A
:100850008F7D80838CE00E9487008CE792E09093EC
:10086000030180930201809169008C60809369008C
:10087000E99A84EF91E090933501809334011092CE
:100880003701109236018091E2010E9487008EE3C9
:1008900092E0909301018093000180916900836050
:1008A00080936900E89A81E08093E40182E390E01C
:1008B0009093E0018093DF018DE090E09093E3015D
:1008C0008093E20185EB92E09093DE018093DD015D
:1008D0008AE0C82ED12CE12CF12C332433944090A3
:1008E000DB015090DC01052C000C660877080E94A3
:1008F00044024B015C014114510461047104F1F0A4
:100900000E944402DC01CB0188199909AA09BB099C
:10091000883E9340A105B10570F321E0421A5108C9
:100920006108710888EE880E83E0981EA11CB11C36
:10093000411451046104710419F7DDCF2FB7F89405
:100940008091380190913901A0913A01B0913B0119
:100950002FBF9093DA018093D901E091DD01F091EE
:10096000DE0109952FB7F8948091380190913901F3
:10097000A0913A01B0913B012FBF2091D901309154
:10098000DA01821B930B2091DF013091E001281BDB
:10099000390B37FF02C020E030E03093DC012093B8
:1009A000DB018091E4018823F1F0032E000C440B5D
:1009B000550B19A28E010F5D1F4FCA01B901A70186
:1009C00096010E940E05605DF80162938F0121156A
:1009D00031054105510589F7CF010E946A0282E283
:1009E00091E00E946A022091DB013091DC0180914C
:1009F000E101232B39F481110EC03092E1016091A5
:100A0000E40105C0882339F01092E10160E0809193
:100A1000E2010E94B6010E94AC0161CFA1E21A2E50
:100A2000AA1BBB1BFD010DC0AA1FBB1FEE1FFF1F92
:100A3000A217B307E407F50720F0A21BB30BE40BE2
:100A4000F50B661F771F881F991F1A9469F7609529
:100A50007095809590959B01AC01BD01CF010895E3
:100A6000EE0FFF1F0590F491E02D099481E090E0D6
:0A0A7000F8940C943B05F894FFCFB6
:100A7A0069026902000000003D01A600D4008A0153
:100A8A000501E300F7005465737420627574746F8E
:0E0A9A006E000D0A004865796F6F6F6F0000E7
:107E0000112484B714BE81FFF0D085E080938100F7
:107E100082E08093C00088E18093C10086E0809377
:107E2000C20080E18093C4008EE0C9D0259A86E02C
:107E300020E33CEF91E0309385002093840096BBD3
:107E4000B09BFECF1D9AA8958150A9F7CC24DD24C4
:107E500088248394B5E0AB2EA1E19A2EF3E0BF2EE7
:107E6000A2D0813461F49FD0082FAFD0023811F036
:107E7000013811F484E001C083E08DD089C08234E0
:107E800011F484E103C0853419F485E0A6D080C0E4
:107E9000853579F488D0E82EFF2485D0082F10E0AE
:107EA000102F00270E291F29000F111F8ED06801E7
:107EB0006FC0863521F484E090D080E0DECF843638
:107EC00009F040C070D06FD0082F6DD080E0C81688
:107ED00080E7D80618F4F601B7BEE895C0E0D1E017
:107EE00062D089930C17E1F7F0E0CF16F0E7DF06D8
:107EF00018F0F601B7BEE89568D007B600FCFDCFD4
:107F0000A601A0E0B1E02C9130E011968C91119780
:107F100090E0982F8827822B932B1296FA010C0160
:107F200087BEE89511244E5F5F4FF1E0A038BF0790
:107F300051F7F601A7BEE89507B600FCFDCF97BE46
:107F4000E89526C08437B1F42ED02DD0F82E2BD052
:107F50003CD0F601EF2C8F010F5F1F4F84911BD097
:107F6000EA94F801C1F70894C11CD11CFA94CF0C13
:107F7000D11C0EC0853739F428D08EE10CD085E9AC
:107F80000AD08FE07ACF813511F488E018D01DD067
:107F900080E101D065CF982F8091C00085FFFCCF94
:107FA0009093C60008958091C00087FFFCCF809118
:107FB000C00084FD01C0A8958091C6000895E0E648
:107FC000F0E098E1908380830895EDDF803219F02E
:107FD00088E0F5DFFFCF84E1DECF1F93182FE3DFCA
:107FE0001150E9F7F2DF1F91089580E0E8DFEE27F6
:047FF000FF270994CA
:027FFE00040479
:0400000300007E007B
:00000001FF